:0A263C000001020203030404050577
:1013B200E4F555F554F553F552C203C200C202C218
:1013C200011217117E1F7F008E0F8F1075191F7566
:1013D2001A12750D1F750E1C75151F751643751B98
:1013E2001F751C5CEE54E070030214F6755600750E
:1013F20057808E588F59C374989FFF741F9ECF24B5
:1014020002CF3400FEE48F518E50F54FF54EF54D6C
:10141200F54CF54BF54AAF51AE50AD4FAC4EAB4D1E
:10142200AA4CA94BA84AC31210255026E557254DB0
:10143200F582E556354CF58374CDF0E54D2401F582
:101442004DE4354CF54CE4354BF54BE4354AF54A61
:1014520080C4E4F54DF54CF54BF54AAF51AE50ADB5
:101462004FAC4EAB4DAA4CA94BA84AC31210255003
:1014720031AE4CAF4DE5592FF582E5583EF583E08C
:10148200FDE5572FF582E5563EF583EDF0EF240199
:10149200F54DE43EF54CE4354BF54BE4354AF54A5F
:1014A20080B985560F85571074002480FF741F344D
:1014B200FFFEC3E51A9FF51AE5199EF519C3E51259
:1014C2009FF512E5119EF511C3E5149FF514E5137E
:1014D2009EF513C3E50E9FF50EE50D9EF50DC3E5D2
:1014E200169FF516E5159EF515C3E51C9FF51CE53F
:1014F2001B9EF51BD2E843D82090E668E04409F031
:1015020090E65CE0443DF0D2AFD288D28AC2A8C253
:10151200AA90E680E020E105D20812239590E680A9
:10152200E054F7F0538EF8C20330010512118EC257
:1015320001300329121BFD5024C20312246B200028
:101542001690E682E030E704E020E1EF90E682E0E8
:1015520030E604E020E0E41223C412265E12209F4B
:0215620080C740
:10118E0090E6B9E0700302123F1470030212BC2401
:10119E00FE700302133F24FB700302123914700316
:1011AE000212331460731460762405600302139EDA
:1011BE0012266040030213AA90E6BBE024FE6022D2
:1011CE0014603324FD601114602224067048E50F6C
:1011DE0090E6B3F0E5108037E51990E6B3F0E51A26
:1011EE00802DE51190E6B3F0E5128023E51390E62D
:1011FE00B3F0E514801990E6BAE0FF1223F0AA06C8
:10120E00A9077B01EA494B600DEE90E6B3F0EF9033
:10121E00E6B4F00213AA0213A31226180213AA129E
:10122E0026460213AA1225B90213AA122606021383
:10123E00AA12266240030213AA90E6B8E0247F6049
:10124E001514601924027063A200E43325E0FFA296
:10125E0002E4334F8041E490E740F0803F90E6BCDB
:10126E00E0547EFF7E00E0D394807C0040047D013C
:10127E0080027D00EC4EFEED4F243CF58274263E3E
:10128E00F583E493FF3395E0FEEF24A1FFEE34E601
:10129E008F82F583E0540190E740F0E4A3F090E6EE
:1012AE008AF090E68B7402F00213AA0213A31226A0
:1012BE006440030213AA90E6B8E024FE60162402EE
:1012CE0060030213AA90E6BAE0B40105C20002134D
:1012DE00AA0213A390E6BAE0705590E6BCE0547EE5
:1012EE00FF7E00E0D394807C0040047D0180027D6F
:1012FE0000EC4EFEED4F243CF58274263EF583E461
:10130E0093FF3395E0FEEF24A1FFEE34E68F82F5D6
:10131E0083E054FEF090E6BCE05480131313541F88
:10132E00FFE0540F2F90E683F0E04420F0806D80B4
:10133E0064122666506690E6B8E024FE6019240218
:10134E00705A90E6BAE0B40104D200804F90E6BA2B
:10135E00E064026047803E90E6BCE0547EFF7E0073
:10136E00E0D394807C0040047D0180027D00EC4E31
:10137E00FEED4F243CF58274263EF583E493FF3355
:10138E0095E0FEEF24A1FFEE34E68F82F583800810
:10139E00120080500790E6A0E04401F090E6A0E035
:0313AE004480F088
:0113B1002219
:03000300022114C3
:10211400C0E0C083C082C0D075D000C004C005C078
:1021240006C00790E6017443F0E53E703790F00076
:1021340074AAF0A37411F0A374CCF0A374EEF0901D
:10214400E690E4F090E6917405F0300419AF32AEF5
:1021540031AD30AC2F8F0C8E0B8D0A8C0975080FA6
:10216400D2078002153EA283B39283D007D006D053
:0C21740005D004D0D0D082D083D0E0325F
:03000B00021E19B9
:101E1900C0E0C0F0C083C082C0D075D000C000C08F
:101E290001C002C003C004C005C006C00785278CD5
:101E390085298AE5086016D2831508E508704C9053
:101E4900E600E054FDF0000000C283803E30073B0D
:101E5900AF0CAE0BAD0AAC09EF24FFF50CEE34FF65
:101E6900F50BED34FFF50AEC34FFF509E4FFFEFD4F
:101E7900FCAB0CAA0BA90AA809C3121025700CC245
:101E89000790E600E04402F0000000D007D006D039
:101E990005D004D003D002D001D000D0D0D082D058
:061EA90083D0F0D0E0320E
:030033000226564C
:0426560053D8EF3234
:1008D7000127D101294A042F00000000C107C104E4
:1008E700012A000437000000000433000000000163
:0B08F700451101410501220A012EFFFE
:1025770085278C85298AE58954F04401F589438E9E
:0625870008D28CD2A9224B
:0625F400C2817F647E003D
:0C25FA00EF4E6007EF1F70F81E80F52206
:1024B50090E6187408F000000090E619F00000009E
:0F24C50090E61AF000000090E61BF000000022E5
:1024D40090E6187409F000000090E619F00000007E
:0F24E40090E61AF000000090E61BF000000022C6
:1017110090E6007412F090E60B7403F00000009064
:10172100E6047480F00000007402F000000074040C
:10173100F00000007406F00000007408F0000000E2
:10174100E4F000000000000090E61274E8F00000F0
:1017510000E490E613F000000090E614F0000000B1
:1017610090E615F000000090E6187408F000000003
:1017710090E619F000000090E61AF000000090E6F3
:101781001BF000000090E6097404F000000090E6F0
:1017910070E04401F000000090E6727408F000006F
:1017A1000090E6207402F0000000E490E621F000D1
:1017B100000090E602F000000090E603F090E601E0
:1017C1007443F043AF0100000090E61074A0F000F4
:1017D100000090E611F000000090E65EE04408F0A1
:1017E100000000E490E68DF090E65EE04404F00035
:1017F1000000E490E68FF0D20043B20843B20275D4
:10180100B5F012264E90E67AE054FEF0E4F5B0C24F
:10181100817F64FE1225FAD28112257775612D75BB
:10182100622E7B027D107FA0122490902D2EE0F578
:1018310044A3E0F52BE5446401600BE544640260D8
:1018410005E544B40508902CF574BAF0C206E544E8
:1018510064036005E544B40408902CF574B8F0C243
:1018610006E54464066005E544B41608902CF57459
:1018710020F0D206E54464076005E544B408089009
:101881002CF57430F0D206E544B40908902CF574B7
:0A189100BAF0D206E4F53ED283223D
:10209F00E52A6402706EC2832080FD7F057E0012E8
:1020AF001EAF90E600E054FDF0E47536E875350399
:1020BF00F534F533E47F64FEFDFCAB36AA35A93465
:1020CF00A833D312102540217F647E00121EAFE586
:1020DF0036249CF536E53534FFF535E53434FFF518
:1020EF0034E53334FFF53380CBAE35AF36121EAF48
:1020FF0090E6017440F090E600E04402F0D2A8C2EE
:05210F0083E4F52A2223
:021BFD00D322F1
:02265E00D32285
:02266000D32283
:1025B90090E680E030E704D2058002C20590E6BAD1
:0525C900E0F53BD32208
:1026060090E740E53BF0E490E68AF090E68B04F034
:02261600D322CD
:0826460090E6BAE0F523D3226F
:1026180090E740E523F0E490E68AF090E68B04F03A
:02262800D322BB
:02266200D32281
:02266400D3227F
:02266600D3227D
:1000800090E6B9E012109A00C1B300E5B7012BB9B0
:10009000014BBB01DEBD021EBF022DC0025AC102D0
:1000A000B5C202FEC80325C90373CA03A1CB03F876
:1000B000CD0424CF0435D10764D2087ED3000008D4
:1000C000D3C2A890E6017440F000000090E60474EA
:1000D00080F00000007402F0000000E4F000000076
:1000E000D2A802041790E6BDE0FE90E6BCE07C00DA
:1000F0002400F55BEC3EF55A902CF5E0FF20061647
:10010000AD5B90E6BEE0FB90E7407561E77562404D
:1001100012249002038F90E6BEE0FB7569E7756AD2
:1001200040AD5BAC5A12230702038FE490E68AF0DD
:1001300090E68BF090E6A0E020E1F9902CF5E0C38A
:1001400013FF7AE77B407D030203F2E490E68AF036
:1001500090E68BF090E6A0E020E1F9780E7C2D7D12
:10016000017B0120062F7AE679BC7E007F01120E0A
:10017000CB90E6BEE0FF7E00780F7C2D7D017B01F9
:100180007AE77940120ECB902CF5E0C313FF90E68E
:10019000BEE00480417AE679BD7E007F01120ECB7D
:1001A000780F7C2D7D017B017AE679BC7E007F0192
:1001B000120ECB90E6BEE0FF7E0078107C2D7D0114
:1001C0007B017AE77940120ECB902CF5E0C313FF48
:1001D00090E6BEE02402FD7A2D7B0E0203F2E4904D
:1001E000E68AF090E68BF090E6A0E020E1F990E757
:1001F00040E0FCA3E0FDA3E0FEA3E0F5328E318DEC
:10020000308C2FE4FFFEFDFCAB32AA31A930A82FC1
:10021000C31210257004C204807ED204807AE4F5F3
:1002200008C20790E600E04402F000000090E6BA41
:10023000E030E00E90E6BCE05490FFE5B0546F4F24
:10024000F5B090E6BAE030E10E90E6BCE05460FF15
:10025000E5B0549F4FF5B0020429E490E68AF0908F
:10026000E68BF090E6A0E020E1F990E740E0FCA307
:10027000E0FDA3E0FEA3E0F5328E318D308C2FE45B
:10028000FFFEFDFCAB32AA31A930A82FC312102506
:100290007004C2048002D204E4F508C207753E016E
:1002A00090E600E04402F0000000E490E68AF000EE
:1002B000000002042EE54124F090E740F0A3E5227F
:1002C000F0E4A3F0A3F0A3F0A20633A3F0A3E52B80
:1002D000F0902CF5E090E747F0A3E544F0300505F9
:1002E000E4A3F0800690E74974FFF0000000E4907A
:1002F000E68AF000000090E68B740A0208CDE490D4
:10030000E68AF090E68BF090E6A0E020E1F990E735
:1003100040E014600C14600B240260030208D580D6
:10032000258032803FE490E68AF090E68BF090E6FC
:10033000A0E020E1F990E740E01460191460252462
:100340000260030208D57527F475295390E60074FE
:1003500002F00208D57527E87529A590E600740A11
:10036000F00208D57527D175294A90E6007412F07D
:100370000208D590E6BCE0755A00F55BFD90E6BE3C
:10038000E0FB7EE77561E77562407FA0122490E490
:1003900090E68AF000000090E6BEE090E68B02084E
:1003A000CDE490E68AF090E68BF090E6A0E020E1C4
:1003B000F990E6BCE0D3940750030208D5780E7C90
:1003C0002D7D017B017AE679BC7E007F01120ECB88
:1003D00090E6BEE0FF7E00780F7C2D7D017B017AE8
:1003E000E77940120ECB90E6BEE004FD7A2D7B0E3D
:1003F0007F5012250F0208D5E490E68AF090E68B34
:10040000F090E6A0E020E1F990E740E070051224CA
:10041000B580031224D4E490E68AF000000090E650
:100420008B0208CD1225F4D281E490E68AF090E6A2
:100430008BF00208D5E490E68AF090E68BF090E627
:10044000A0E020E1F9E4F55CF55DAF5D74402FF5C7
:1004500082E434E7F583E0FE74302FF582E4342D36
:10046000F583EEF0055DE55D7002055C6440455C7A
:1004700070D8902D30E02460B40C00400302075681
:1004800090048E75F003A4C58325F0C58373020420
:10049000B202059402059E0205ED02060302060F54
:1004A00002062B02070B0207270207560207560215
:1004B0000730C2817F057E00121EAFD2817F057E8C
:1004C00000121EAFE4F508F50CF50BF50AF509C2AC
:1004D0000712189B902D31E0704EF52EC2A890E6C1
:1004E000017440F000000090E6047480F000000009
:1004F0007402F0000000E4F0000000D2A87F0112B6
:100500002219902CF712106900004E20902CF7E071
:10051000FCA3E0FDA3E0FEA3E0FF1215641224B5E6
:100520009028317408F0805D902D31E064017055A1
:10053000752E01902CF712106900002710902CF7EF
:10054000E0FCA3E0FDA3E0FEA3E0FF121564752A22
:1005500001C2A8D28390E600E04402F000000090BF
:10056000E6017440F000000090E6047480F00000A2
:10057000007402F0000000E4F00000007F0AFE12A8
:100580001EAF752A02754605754700754803754903
:10059000C0020756902D31E0FF1222198079902D6C
:1005A00032E0FEA3E07C002400F547EC3EF546A3D4
:1005B000E0FEA3E02400F540EC3EF53FA3E0FEA3FF
:1005C000E02400F549EC3EF548A3E0FEA3E024005A
:1005D000F543EC3EF542F566854367AB49AA48AD65
:1005E00040AC3FAF47AE46121CB8020756902D31C3
:1005F000E0FCA3E0FDA3E0FEA3E0FF902CF71210C7
:100600005D80147B017A2D79311219DE0207569034
:100610002D31E0FF12241C902CF7E0FCA3E0FDA399
:10062000E0FEA3E0FF121564020756902D31E0248E
:10063000EF604D24EF605E24DE607524DE60782478
:100640006760791460030206FAE52E7024C2A89050
:10065000E6017440F000000090E6047480F00000B1
:10066000007402F0000000E4F0000000D2A80206CE
:10067000FAE52E640160030206FA752A020206FA00
:10068000E4F508F50CF50BF50AF509C20790E6004C
:10069000E044028061E4F508F50CF50BF50AF50974
:1006A000C20790E600E04402F00000007F018002F3
:1006B000E4FF12218080431225F4D281E52E700CD4
:1006C000F508C20790E600E04402802A752A01C2BC
:1006D000A8D28390E600E04402F000000090E6011A
:1006E0007440F000000090E6047480F00000007494
:1006F00002F0000000E4F0000000E490E68AF00060
:10070000000090E68BF0000000804B902D31E070EF
:100710000B1224B59028317408F0803A1224D4903A
:1007200028317410F0802F7B017A2D793112262A1E
:10073000902D31E0FF30E00CA3E05490FEE5B05482
:100740006F4EF5B0EF30E10E902D32E05460FFE5D2
:10075000B0549F4FF5B0E490E68AF000000090E6B8
:100760008B0208CDE4F55CF55D7440255DF582E40F
:1007700034E7F583E4F0055DE55D7002055C6440F7
:10078000455C70E5E47FE87E03FDFCAB0CAA0BA999
:100790000AA809120FC090281212105D902CF7E0E1
:1007A000FCA3E0FDA3E0FEA3E0FF12252B9028169A
:1007B000EFF0902CF7E0FCA3E0FDA3E0FEA3E0FF48
:1007C0001225CE902817EFF0902CF7E0FCA3E0FD67
:1007D000A3E0FEA3E0FF1225E1902818EFF0902C93
:1007E000F7E0FCA3E0FDA3E0FEA3E0FF121EF590FE
:1007F0002819EFF0A3E545F0A3E541F0A3E522F0C9
:10080000E54690282DF0E547A3F0E548A3F0E5493B
:10081000A3F09028323005057402F080037401F0D3
:10082000E4F55CF55DAF5D74112FF582E43428F5D5
:1008300083E0FE74402FF582E434E7F583EEF005A3
:100840005DE55D7002055C6422455C70D87EE775ED
:1008500061E775626E7B027D107FA01224907EE7B7
:100860007561E77562707B107D187FA0122490E49B
:1008700090E68AF000000090E68B7440804FE4F52B
:100880005CF55D7440255DF582E434E7F583E4F0C2
:10089000055DE55D7002055C6440455C70E590E7D0
:1008A0004EE528F0A3E526F0A3E525F0A3E524F026
:1008B00090E767E52EF090E77EE53DF0A3E53CF09C
:1008C000E490E68AF000000090E68B7440F00000AF
:0608D000008002D322C3E8
:0108D60022FF
:10254700C0E0C083C082D2015391EF90E65D740171
:08255700F0D082D083D0E03205
:10258D00C0E0C083C0825391EF90E65D7404F0D03B
:06259D0082D083D0E03281
:1025A300C0E0C083C0825391EF90E65D7402F0D027
:0625B30082D083D0E0326B
:10225500C0E0C083C08290E680E030E70E850D11B6
:10226500850E12851513851614800C851511851696
:1022750012850D13850E145391EF90E65D7410F0E1
:07228500D082D083D0E032CB
:10255F00C0E0C083C082D2035391EF90E65D740850
:08256F00F0D082D083D0E032ED
:10228C00C0E0C083C08290E680E030E70E850D117F
:10229C00850E12851513851614800C85151185165F
:1022AC0012850D13850E145391EF90E65D7420F09A
:0722BC00D082D083D0E03294
:011BFF0032B3
:01266800323F
:01266900323E
:01266A00323D
:10202600C0E0C083C082C0D075D000C000C004C06C
:1020360005C006C007C2AFE4FFFEFDE533FC781815
:1020460012103690E7C4EFF0E4FFFEE534FDE4FC41
:102056007810121036A3EFF0E4FFE535FEE4FDFC40
:102066007808121036A3EFF0E536FFA3EFF0000074
:102076000090E68F7408F00000005391EF90E65F41
:10208600E04404F0D2AFD007D006D005D004D0008B
:09209600D0D0D082D083D0E0321A
:101D6D00C0E0C083C082C0D075D000C004C005C023
:031D7D0006C00796
:101D8000C2AF90E6A1E020E1F990E780E024EF60A7
:101D90002214604F2413605024EF705890E781E0C4
:101DA000FCA3E0FDA3E0FEA3E0F53A8E398D388C6C
:101DB000378041752A01C2A8D28390E600E0440230
:101DC000F000000090E6017440F000000090E6048E
:101DD0007480F00000007402F0000000E4F00000E5
:101DE000008011752A02800C7536647535007534D3
:101DF0000075330000000090E68DE4F05391EF9001
:081E0000E65FE04408F0D2AFF8
:101E0800D007D006D005D004D0D0D082D083D0E07F
:011E18003297
:01266B00323C
:01266C00323B
:01266D00323A
:01266E003239
:01266F003238
:012670003237
:012671003236
:012672003235
:012673003234
:012674003233
:012675003232
:012676003231
:012677003230
:01267800322F
:01267900322E
:01267A00322D
:01267B00322C
:01267C00322B
:01267D00322A
:01267E003229
:01267F003228
:012680003227
:012681003226
:012682003225
:012683003224
:012684003223
:012685003222
:012686003221
:012687003220
:01268800321F
:101F00001201000200000040181621090000010221
:101F100000010A060002000000400100090227003B
:101F200001010080FA0904000003FF00000007051A
:101F3000820200020007058102400000070501023D
:101F40004000000902190001010080FA09040000A4
:101F500001FF00000007058202400000040309049D
:101F600014035100480059002D0043004300440071
:101F700020002000240351004800590035002D00A6
:101F800049004900200020002000200020002000FF
:0A1F900020002000200020000000C7
:1023C40090E682E030E004E020E60B90E682E03024
:1023D400E119E030E71590E680E04401F07F147ED7
:0C23E40000121EAF90E680E054FEF022D4
:10246B0090E682E044C0F090E681F04387010000E3
:04247B00000000223B
:1023950030080990E680E0440AF0800790E680E086
:1023A5004408F07FDC7E05121EAF90E65D74FFF0F9
:0F23B50090E65FF05391EF90E680E054F7F0224E
:101EAF008E688F6990E600E054187012E56924017E
:101EBF00FFE43568C313F568EF13F569801590E6F5
:101ECF0000E05418FFBF100BE56925E0F569E568E0
:101EDF0033F568E5691569AE68700215684E6005DF
:061EEF0012247F80EE22A8
:08264E00E4F575D2E9D2AF22D8
:1022C30090E678E020E6F9C2E990E678E04480F011
:1022D300EF25E090E679F090E678E030E0F990E6DB
:1022E30078E04440F090E678E020E6F990E678E084
:0622F30030E1D6D2E92221
:10236300A90790E678E020E6F9E575702390E67812
:10237300E04480F0E925E090E679F08D70AF03A9A1
:10238300077571018A728973E4F574757501D32237
:02239300C32263
:10232F00A90790E678E020E6F9E575702590E67844
:10233F00E04480F0E925E0440190E679F08D70AF3C
:10234F0003A9077571018A728973E4F574757503B2
:04235F00D322C322A0
:03004B00021AF5A1
:101AF500C0E0C083C082C085C084C086758600C032
:101B0500D075D000C000C001C002C003C006C00728
:101B150090E678E030E206757506021BDF90E67800
:101B2500E020E10CE57564026006757507021BDFB0
:101B3500E57524FE605F14603624FE7003021BD039
:101B450024FC7003021BDC24086003021BDFAB715D
:101B5500AA72A973AF7405748F82758300120EF192
:101B650090E679F0E57465707070757505806B9019
:101B7500E679E0AB71AA72A973AE748E82758300A3
:101B8500120F1E757502E5706401704E90E678E0DF
:101B95004420F08045E57024FEB5740790E678E0B2
:101BA5004420F0E57014B5740A90E678E04440F0FE
:101BB50075750090E679E0AB71AA72A973AE748E63
:101BC50082758300120F1E0574800F90E678E0443D
:101BD50040F075750080037575005391DFD007D00F
:101BE50006D003D002D001D000D0D0D086D084D08A
:081BF50085D082D083D0E032DC
:0223F000A9073B
:1023F200AE1BAF1C8F828E83A3E064037017AD0106
:1024020019ED7001228F828E83E07C002FFDEC3E5D
:09241200FEAF0580DF7E007F00B3
:01241B00229E
:1024F30012232FE57524FA600E146006240770F387
:0C250300D322E4F575D322E4F575D32251
:10250F00122363E57524FA600E146006240770F336
:0C251F00D322E4F575D322E4F575D32235
:10247F007400F58690FDA57C05A3E582458370F970
:01248F00222A
:03004300021C009C
:03005300021C008C
:101C0000022547000225A30002258D0002255F0062
:101C10000222550002228C00021BFF0002266800EF
:101C20000226690002266A0002202600021D6D00BD
:101C300002266B0002266C0002266D0002266E0052
:101C400002266F000226680002267000022671003C
:101C50000226720002267300022674000226750016
:101C60000226760002266800022668000226680026
:101C700002267700022678000226790002267A00E2
:101C800002267B0002267C0002267D0002267E00C2
:101C900002267F00022680000226810002268200A2
:101CA0000226830002268400022685000226860082
:081CB0000226870002268800CD
:04265A00000000007C
:10090200412CF5BA604028110100000000000000EF
:1009120000000000000000000000000000000000D5
:1009220000000000000000000000000000000000C5
:1009320000000000000000000000000000000000B5
:100942000000000000000000412CF60C41281000BD
:1009520064A42851308880003086002530865050AB
:1009620030862D263086082830860D1730860926D7
:1009720030860028308605263086A728308607254F
:1009820030868080308629253086004030862702D6
:10099200308616163086270630861F173086362692
:1009A2003086A617308603263086A41730861F2885
:1009B2003086052630862028308604253086202081
:1009C200308627003086171D308625003086201796
:1009D20030861028308605193086170330862706A0
:1009E2003086170330861741308626603086175AC4
:1009F2003086231730861122308617413086250033
:100A02003086902730860026308618283086002EC1
:100A120030862A283086081C30861470308670038F
:100A220030861470308670043086147030867005FB
:100A320030861470308670093086170C30860014A8
:100A42003086002030860014308600503086031431
:100A5200308600203086031430860050308604141D
:100A6200308600203086041430860050308605140B
:100A720030860020308624053086140030865001EE
:100A8200308625503086502D308626083086280D37
:100A9200308617093086260030862805308626A73C
:100AA20030862807308625803086802930862500CA
:100AB200308640273086021630861627308606207A
:100AC20030861736308626A630861703308626A44F
:100AD2003086171F30862805308626203086280467
:100AE20030862520308620273086001730861D2547
:100AF20030860020308617103086280530861A1777
:100B02003086032730860617308603173086412643
:100B1200308660173086AE253086009030862700FA
:100B2200308626183086280030862E2A30862808FD
:100B320030861D0530861470308670093086172085
:100B4200308614003086202430861400308650020D
:100B5200308625503086502D308626083086280D66
:100B6200308617093086260030862805308626A76B
:100B720030862807308625803086802930862500F9
:100B820030864027308602163086162730860617B2
:100B9200308636263086A617308603263086A4177E
:100BA20030861F2830860526308620283086042588
:100BB20030862020308627003086171D308625009B
:100BC20030862021308617103086280530861B1784
:100BD2003086032730860617308603173086412673
:100BE200308660173086AE2530860090308627002A
:100BF200308626183086280030862E2A308628082D
:100C020030861E1730860A053086147030867009C9
:100C1200308616163086161630861616308616164A
:100C2200308616163086161630861616308616163A
:100C3200308616163086161630861616308616162A
:100C4200308616163086161630861616308616161A
:100C52003086140030862024308614003086502BD3
:100C62003086302C30862C2C30862C0030860225A3
:100C72003086505030862D263086082830860D1753
:100C82003086092630860028308605263086A72839
:100C920030860725308680803086291730860525E4
:100CA20030860040308627023086161630862706A8
:100CB20030861736308626A630861703308626A45D
:100CC2003086171F30862805308626203086280475
:100CD20030862520308620273086001730861E2554
:100CE2003086002030862117308610283086051B7A
:100CF200308617033086270630861703308617475B
:100D020030862660308617AE3086250030869027E2
:100D120030860026308618283086002E30862A2813
:100D22003086081E308608313086144030864014E2
:100D3200308620203086141030861034308614001D
:100D4200308610143086002030861400308640131E
:100D52003086180230861470308670043086147023
:100D62003086700330861470308670173086200209
:100D720030861400308620023086140030865004FB
:100D820030861400308620043086140030865022CB
:100D920030860314308600203086031430860050DB
:100DA20030862C2C30862C2C309E018A301A10D89A
:100DB20030820029301E00C83EDA0F033EDEC00733
:100DC2003ED801EF3EE2A46B3EE0067D3EDC0070C1
:100DD200304404043EE643033EE4D2083ED600BD5E
:100DE2003EE6830330E4637230E2725330E05470C3
:080DF20030E6C4CC30E880506B
:08252B008F6B8E6A8D698C68CC
:10253300E4FFFEFDE56878181210498F6F8E6E8DEB
:032543006D8C6C30
:012546002272
:1025CE00E4FFFEE4FC78101210368F6B8E6A8D6974
:0225DE008C6807
:0125E00022D8
:1025E100E4FFE4FDFC78081210368F6B8E6A8D696A
:0225F1008C68F4
:0125F30022C5
:0A1EF500EFF56BE4F56AF569F56896
:011EFF0022C0
:042490008F5E8B6070
:10249400902D40EDF0E55EC313FF7A2D7B407D0166
:1024A40012250FE55EC313FFAB62AA61AD6002247F
:0124B400F334
:0E22F900E0FF75692D756A407D1A7B027C300E
:042307008F658B68EB
:10230B00EC902D42F0EDA3F0E565C313FF7A2D7B26
:10231B00427D0212250FE565C313FFAB6AAA69ADB7
:04232B00680224F32D
:09244500902CF5E0FF7A007C30D8
:02244E00A907DC
:10245000EC902D44F0EDA3F0EAA3F0EBA3F0E9C378
:0B24600013FF7A2D7B447D0402250F42
:10189B00E4F55EF55F902CF5E0FF7B0F7AE07DD4ED
:1018AB007C3012244E7B017D1A122445902CF5E0DE
:1018BB00FF7BD87A107D1A7C3012244E7F0A7E0073
:1018CB00121EAFE4F55EF55FE55FAE5E7802C333E3
:1018DB00CE33CED8F9FF2451F58274283EF583E040
:1018EB00FCA3E0FD74532FF58274283EF583E0FAD8
:1018FB00A3E0FB902CF5E0FF12244E055FE55F7033
:10190B0002055EC39429E55E940140BC7F0A7E000C
:10191B00121EAF902CF5E0FF7B0A7A007DBA7C306B
:10192B0012244E7F0A7E00121EAF902CF5E0FF7B37
:10193B00307A537DB07C3012244E902CF5E0FF7B37
:10194B00FF7A007D5E7C3012244E7B207D121224A8
:10195B0045902CF5E0FF7B027A187D647C301224D5
:10196B004EE4FF122219E4902D0EF0A37405F0E45F
:10197B00A3F0A3F0A3F0A37403F0A374C0F0E4A34B
:10198B00F0A3F0F566F5677BC07A03FDFCFF7E05DF
:10199B00121CB87F1E12241C902CF7121069000326
:1019AB000D40902CF7E0FCA3E0FDA3E0FEA3E0FFCD
:1019BB00121564E4902D0EF0A3740FF0902D11749A
:1019CB00FFF0902D15F0902D19F07B017A2D790EEB
:0319DB000219DE10
:0619DE008B608A61896242
:1019E400E4F563F56478407C2D7D017BFF7A2679EC
:1019F4005AFE7F02120ECB902CF5E0FF75692D750F
:101A04006A407DB0122303902D40E0F563A3E0F516
:101A140064AB60AA61A962900001120EF1540C7AC1
:101A240000FB7E007802C333CE33CED8F9FB5303D8
:101A340030EB4264902CF5E0FFAB64AA637DB07C8C
:101A44003012244E902CF5E0FF75692D756A407BA9
:101A5400027DE47C3E122307902D40E0F563A3E071
:101A6400F564AB60AA61A962900001120EF15403FF
:101A74007B00FA530203EA4263902CF5E0FF7DE415
:101A84007C3E12244E902CF5E0FFAB60AA61A96263
:101A9400900007120EF1FB7A007D567C3012244E22
:101AA400902CF5E0FFAB60AA61A96290000B120EC6
:101AB400F1FB7A007D587C3012244E902CF5E0FF27
:101AC400AB60AA61A962900003120EF1FB7A007D5B
:101AD4005A7C3012244E902CF5E0FFAB60AA61A929
:101AE40062900007120EF1FB7A007D5C7C300224C8
:011AF4004EA3
:041CB8008A648B654A
:101CBC00ED2404F569E43CF568E5672404F56BE470
:101CCC003566F56AEF24FFF56DEE34FFF56CE565CE
:101CDC0024FFF56FE56434FFF56E902CF5E0FFAB57
:101CEC006BAA6A7D027C3012244E902CF5E0FFAB7F
:101CFC0069AA687D047C3012244E902CF5E0FFE537
:101D0C006B256FFBE56A356EFA7D067C3012244E2E
:101D1C00902CF5E0FFE569256DFBE568356CFA7DE7
:101D2C00087C3012244E902CF5E0FFE565241AFB5C
:101D3C00E43564FA7D0A7C3012244E902CF5E0FFD9
:101D4C007B727A067D0C7C3012244E752C06752D18
:101D5C0072902CF5E0FF7BDC7A107D1A7C3002242B
:011D6C004E28
:081564008F638E628D618C60C3
:10156C00E4F564F565F566F567902D401210690099
:10157C00000000852C66852D67E566F53DE567F571
:10158C003C902CF6E0FD7C00AE66AF67120F40E499
:10159C00FCFD7BE87AFDF9F8120FC0902D4012107B
:1015AC005D902D40E0FCA3E0FDA3E0FEA3E0FF1264
:1015BC001EF58F24902D40E0FCA3E0FDA3E0FEA3DC
:1015CC00E0FF1225E18F25902D40E0FCA3E0FDA368
:1015DC00E0FEA3E0FF1225CE8F26902D40E0FCA369
:1015EC00E0FDA3E0FEA3E0FF12252B8F28902D40F9
:1015FC00E0FCA3E0FDA3E0FEA3E0FFAB63AA62A9BD
:10160C0061A860D312100F40679028107401F090FD
:10161C002CF5E0FF7BE87AFD7D127C3012244E9095
:10162C002D40E0F8A3E0F9A3E0FAA3E0FBC3E563E7
:10163C009BFFE5629AFEE56199FDE56098FCE47B11
:10164C00E87A03F9F81221D58F638E628D618C6074
:10165C008F328E318D308C2FD204E4F508C2077591
:10166C003E0190E600E04402F07F017E00021EAFD6
:10167C00902810E064017028F0F532F531F530F562
:10168C002FC204F508C207753E0190E600E0440243
:10169C00F0902CF5E0FFE4FBFA7D127C3012244E26
:1016AC00AE66AF67AB07AA06E4F9F8AF63AE62ADFE
:1016BC0061AC601221D5A804A905AA06AB07902C31
:1016CC00F6E0FFE4FCFDFE120FC08E648F65E4FCB7
:1016DC00FD7BE87AFDF9F8C312100F50067564FD16
:1016EC007565E8C3E5659401E5649400500675647E
:1016FC0000756501902CF5E0FFAB65AA647D127C4A
:04170C003012244E25
:0117100022B6
:10221900EF1460071460122402801C90E600740A0F
:10222900F0902CF67418F0801A90E6007412F09071
:102239002CF67430F0800C90E6007402F0902CF6C5
:0C224900740CF0902CF6E0902811F022AC
:10241C008F60EF75F032A4AEF02472F52DEE340619
:10242C00F52C902CF5E0FFAB2DAA2C7D0C7C3012FA
:09243C00244E902821E560F022F5
:10262A00120F95FBAAF0902CF5E0FF7D1E7C30027C
:02263A00244E2C
:022180008F5E70
:10218200755F0075600178407C2D7D017BFF7A26AA
:10219200795C7E007F02120ECBE55E902CF5701208
:1021A2001222F9902D40E0F55FA3E0F56043600450
:1021B20080101222F9902D40E0F55FA3E0F5605304
:1021C20060FB902CF5E0FFAB60AA5F7D1A7C3012B9
:0221D200244E99
:0121D40022E8
:03000000021F9A42
:0C1F9A00787FE4F6D8FD758175021FE128
:100DFB00E709F608DFFA8046E709F208DFFA803EDA
:100E0B0088828C83E709F0A3DFFA8032E309F608C6
:100E1B00DFFA8078E309F208DFFA807088828C832E
:100E2B00E309F0A3DFFA806489828A83E0A3F608E2
:100E3B00DFFA805889828A83E0A3F208DFFA804CBC
:100E4B0080D280FA80C680D4806980F28033801093
:100E5B0080A680EA809A80A880DA80E280CA8033FC
:100E6B0089828A83ECFAE493A3C8C582C8CCC58374
:100E7B00CCF0A3C8C582C8CCC583CCDFE9DEE78044
:100E8B000D89828A83E493A3F608DFF9ECFAA9F0C3
:100E9B00EDFB2289828A83ECFAE0A3C8C582C8CC19
:100EAB00C583CCF0A3C8C582C8CCC583CCDFEADE32
:100EBB00E880DB89828A83E493A3F208DFF980CC94
:100ECB0088F0EF60010E4E60C388F0ED2402B4048D
:100EDB000050B9F582EB2402B4040050AF23234534
:060EEB008223900E4B7300
:100EF100BB010CE58229F582E5833AF583E02250B6
:100F010006E92582F8E622BBFE06E92582F8E222FF
:0D0F1100E58229F582E5833AF583E4932219
:100F1E00F8BB010DE58229F582E5833AF583E8F009
:100F2E00225006E92582C8F622BBFE05E92582C8B5
:020F3E00F2229D
:100F4000BC000BBE0029EF8DF084FFADF022E4CC95
:100F5000F875F008EF2FFFEE33FEEC33FCEE9DEC5E
:100F6000984005FCEE9DFE0FD5F0E9E4CEFD22EDA4
:100F7000F8F5F0EE8420D21CFEADF075F008EF2FEE
:100F8000FFED33FD4007985006D5F0F222C398FDDF
:050F90000FD5F0EA227C
:100F9500BB010A89828A83E0F5F0A3E02250068727
:100FA500F009E71922BBFE07E3F5F009E3192289E9
:0B0FB500828A83E493F5F0740193221C
:100FC000E88FF0A4CC8BF0A42CFCE98EF0A42CFCD0
:100FD0008AF0EDA42CFCEA8EF0A4CDA8F08BF0A44E
:100FE0002DCC3825F0FDE98FF0A42CCD35F0FCEBAD
:100FF0008EF0A4FEA9F0EB8FF0A4CFC5F02ECD3972
:0F100000FEE43CFCEAA42DCE35F0FDE43CFC22DE
:1021D500C2D5E830E70FB2D5E4C39BFBE49AFAE435
:1021E50099F9E498F8EC30E717B2D512220B1210E2
:1021F500FCE4C39BFBE49AFAE499F9E498F88003BC
:102205001210FC30D50DE4C39FFFE49EFEE49DFD56
:04221500E49CFC2227
:10100F00EB9FF5F0EA9E42F0E99D42F0EC6480C858
:06101F0064809845F022F8
:10102500EB9FF5F0EA9E42F0E99D42F0E89C45F021
:011035002298
:10103600E8600FECC313FCED13FDEE13FEEF13FF98
:03104600D8F122BC
:10104900E86010ECA2E713FCED13FDEE13FEEF13BD
:04105900FFD8F022AA
:0C105D00ECF0A3EDF0A3EEF0A3EFF02206
:10106900A8828583F0D083D082121080121080125A
:101079001080121080E473E493A3C583C5F0C5837F
:10108900C8C582C8F0A3C583C5F0C583C8C582C8D1
:011099002234
:10109A00D083D082F8E4937012740193700DA3A3E5
:1010AA0093F8740193F5828883E4737402936860F9
:0610BA00EFA3A3A380DFF9
:101FA6000213B2E493A3F8E493A34003F68001F28C
:101FB60008DFF48029E493A3F85407240CC8C3333C
:101FC600C4540F4420C8834004F456800146F6DF0B
:101FD600E4800B01020408102040809008D7E47EBC
:101FE600019360BCA3FF543F30E509541FFEE49300
:101FF600A360010ECF54C025E060A840B8E493A3C7
:10200600FAE493A3F8E493A3C8C582C8CAC583CAF1
:10201600F0A3C8C582C8CAC583CADFE9DEE780BEA9
:010DFA0000F8
:1010C00075F008758200EF2FFFEE33FECD33CDCCE7
:1010D00033CCC58233C5829BED9AEC99E58298406A
:1010E0000CF582EE9BFEED9AFDEC99FC0FD5F0D647
:1010F000E4CEFBE4CDFAE4CCF9A88222B800C1B971
:101100000059BA002DEC8BF084CFCECDFCE5F0CBAE
:10111000F97818EF2FFFEE33FEED33FDEC33FCEBE7
:1011200033FB10D703994004EB99FB0FD8E5E4F9A2
:10113000FA227818EF2FFFEE33FEED33FDEC33FC8F
:10114000C933C910D7059BE99A4007EC9BFCE99A83
:10115000F90FD8E0E4C9FAE4CCFB2275F010EF2FC8
:10116000FFEE33FEED33FDCC33CCC833C810D707C8
:101170009BEC9AE899400AED9BFDEC9AFCE899F803
:0E1180000FD5F0DAE4CDFBE4CCFAE4C8F92296
:00000001FF
