:0A251E000001020203030404050596
:10129400E4F554F553F552F551C203C200C202C23B
:1012A400011215F37E1E7F008E0F8F1075191E75A7
:1012B4001A12750D1E750E1C75151E751643751BB9
:1012C4001E751C5CEE54E070030213D8755500754E
:1012D40056808E578F58C374989FFF741E9ECF24D8
:1012E40002CF3400FEE48F508E4FF54EF54DF54C91
:1012F400F54BF54AF549AF50AE4FAD4EAC4DAB4C46
:10130400AA4BA94AA849C3120F075026E556254CF3
:10131400F582E555354BF58374CDF0E54C2401F5A4
:101324004CE4354BF54BE4354AF54AE43549F54987
:1013340080C4E4F54CF54BF54AF549AF50AE4FADDA
:101344004EAC4DAB4CAA4BA94AA849C3120F075047
:1013540031AE4BAF4CE5582FF582E5573EF583E0AF
:10136400FDE5562FF582E5553EF583EDF0EF2401BA
:10137400F54CE43EF54BE4354AF54AE43549F54984
:1013840080B985550F85561074002480FF741E346F
:10139400FFFEC3E51A9FF51AE5199EF519C3E51278
:1013A4009FF512E5119EF511C3E5149FF514E5139D
:1013B4009EF513C3E50E9FF50EE50D9EF50DC3E5F1
:1013C400169FF516E5159EF515C3E51C9FF51CE55E
:1013D4001B9EF51BD2E843D82090E668E04409F050
:1013E40090E65CE0443DF0D2AFD288D28AC2A8C273
:1013F400AA90E680E020E105D20812229690E680C9
:10140400E054F7F0538EF8C203300105121070C295
:1014140001300329121AFE5024C20312236C200047
:101424001690E682E030E704E020E1EF90E682E007
:1014340030E604E020E0E41222C5122540121F9F8A
:0214440080C75F
:1010700090E6B9E0700302112114700302119E245E
:10108000FE700302122124FB700302111B14700373
:101090000211151460731460762405600302128037
:1010A000122542400302128C90E6BBE024FE60222F
:1010B00014603324FD601114602224067048E50F8B
:1010C00090E6B3F0E5108037E51990E6B3F0E51A45
:1010D000802DE51190E6B3F0E5128023E51390E64C
:1010E000B3F0E514801990E6BAE0FF1222F1AA06E7
:1010F000A9077B01EA494B600DEE90E6B3F0EF9053
:10110000E6B4F002128C0212851224FA02128C123A
:10111000252802128C12249B02128C1224E802123F
:101120008C122544400302128C90E6B8E0247F60C4
:101130001514601924027063A200E43325E0FFA2B5
:1011400002E4334F8041E490E740F0803F90E6BCFA
:10115000E0547EFF7E00E0D394807C0040047D015B
:1011600080027D00EC4EFEED4F241EF58274253E7C
:10117000F583E493FF3395E0FEEF24A1FFEE34E620
:101180008F82F583E0540190E740F0E4A3F090E60D
:101190008AF090E68B7402F002128C0212851225FE
:1011A00046400302128C90E6B8E024FE601624024A
:1011B000600302128C90E6BAE0B40105C20002128C
:1011C0008C02128590E6BAE0705590E6BCE0547E41
:1011D000FF7E00E0D394807C0040047D0180027D8E
:1011E00000EC4EFEED4F241EF58274253EF583E49F
:1011F00093FF3395E0FEEF24A1FFEE34E68F82F5F6
:1012000083E054FEF090E6BCE05480131313541FA7
:10121000FFE0540F2F90E683F0E04420F0806D80D3
:1012200064122548506690E6B8E024FE6019240256
:10123000705A90E6BAE0B40104D200804F90E6BA4A
:10124000E064026047803E90E6BCE0547EFF7E0092
:10125000E0D394807C0040047D0180027D00EC4E50
:10126000FEED4F241EF58274253EF583E493FF3393
:1012700095E0FEEF24A1FFEE34E68F82F58380082F
:10128000120080500790E6A0E04401F090E6A0E054
:031290004480F0A7
:011293002238
:03000300022015C3
:10201500C0E0C083C082C0D075D000C004C005C078
:1020250006C00790E6017443F0E53D703790F00077
:1020350074AAF0A37411F0A374CCF0A374EEF0901D
:10204500E690E4F090E6917405F0300419AF31AEF6
:1020550030AD2FAC2E8F0C8E0B8D0A8C0975080FA9
:10206500D2078002153DA283B39283D007D006D054
:0C20750005D004D0D0D082D083D0E0325F
:03000B00021D19BA
:101D1900C0E0C0F0C083C082C0D075D000C000C090
:101D290001C002C003C004C005C006C00785278CD6
:101D390085298AE5086016D2831508E508704C9054
:101D4900E600E054FDF0000000C283803E30073B0E
:101D5900AF0CAE0BAD0AAC09EF24FFF50CEE34FF66
:101D6900F50BED34FFF50AEC34FFF509E4FFFEFD50
:101D7900FCAB0CAA0BA90AA809C3120F07700CC265
:101D89000790E600E04402F0000000D007D006D03A
:101D990005D004D003D002D001D000D0D0D082D059
:061DA90083D0F0D0E0320F
:030033000225386B
:0425380053D8EF3253
:1007BC000127D101294A042E00000000C107C10401
:1007CC00012A000436000000000432000000000181
:0807DC00441101400401221A3E
:1024590085278C85298AE58954F04401F589438EBD
:0624690008D28CD2A9226A
:0624D600C2817F647E005C
:0C24DC00EF4E6007EF1F70F81E80F52225
:101ADF0090E6187408F000000090E619F00000007E
:0F1AEF0090E61AF000000090E61BF000000022C5
:1023B60090E6187409F000000090E619F00000009D
:0F23C60090E61AF000000090E61BF000000022E5
:1015F30090E6007412F090E60B7403F00000009084
:10160300E6047480F00000007402F000000074042B
:10161300F00000007406F00000007408F000000001
:10162300E4F000000000000090E61274E8F000000F
:1016330000E490E613F000000090E614F0000000D0
:1016430090E615F000000090E6187408F000000022
:1016530090E619F000000090E61AF000000090E612
:101663001BF000000090E6097404F000000090E60F
:1016730070E04401F000000090E6727408F000008E
:101683000090E6207402F0000000E490E621F000F0
:10169300000090E602F000000090E603F090E601FF
:1016A3007443F043AF0100000090E61074A0F00013
:1016B300000090E611F000000090E65EE04408F0C0
:1016C300000000E490E68DF090E65EE04404F00054
:1016D3000000E490E68FF0D20043B20843B20275F3
:1016E300B5F012253090E67AE054FEF0E4F5B0C28E
:1016F300817F64FE1224DCD28112245975602D751A
:10170300612E7B027D107FA0122391902D2EE0F598
:1017130043A3E0F52BE5436401600BE543640260FA
:1017230005E543B40508902CF574BAF0C206E54309
:1017330064036005E543B40408902CF574B8F0C263
:1017430006E54364066005E543B41608902CF5747A
:1017530020F0D206E54364076005E543B40808902A
:101763002CF57430F0D206E543B40908902CF574D7
:0A177300BAF0D206E4F53DD283225D
:101F9F00E52A6402706FC2832080FD7F057E0012E8
:101FAF001DAF90E600E054FDF08539358538348556
:101FBF003733853632E47F64FEFDFCAB35AA34A996
:101FCF0033A832D3120F0740217F647E00121DAF5A
:101FDF00E535249CF535E53434FFF534E53334FF2E
:101FEF00F533E53234FFF53280CBAE34AF35121D09
:101FFF00AF90E6017440F090E600E04402F0D2A802
:06200F00C283E4F52A2261
:021AFE00D322F1
:02254000D322A4
:02254200D322A2
:10249B0090E680E030E704D2058002C20590E6BAF0
:0524AB00E0F53AD32228
:1024E80090E740E53AF0E490E68AF090E68B04F055
:0224F800D322ED
:0825280090E6BAE0F523D3228E
:1024FA0090E740E523F0E490E68AF090E68B04F05A
:02250A00D322DA
:02254400D322A0
:02254600D3229E
:02254800D3229C
:1000800090E6B9E0120F7C00C1B300E5B7012BB9CF
:10009000014BBB01DEBD021EBF022DC0025AC102D0
:1000A000B5C202FEC80325C90373CA03A1CB03F876
:1000B000CD0424CF0435D1064FD20769D300000701
:1000C000B8C2A890E6017440F000000090E6047405
:1000D00080F00000007402F0000000E4F000000076
:1000E000D2A802041790E6BDE0FE90E6BCE07C00DA
:1000F0002400F55AEC3EF559902CF5E0FF20061649
:10010000AD5A90E6BEE0FB90E7407560E775614050
:1001100012239102038F90E6BEE0FB7568E77569D4
:1001200040AD5AAC5912220802038FE490E68AF0DF
:1001300090E68BF090E6A0E020E1F9902CF5E0C38A
:1001400013FF7AE77B407D030203F2E490E68AF036
:1001500090E68BF090E6A0E020E1F9780E7C2D7D12
:10016000017B0120062F7AE679BC7E007F01120D0B
:10017000AD90E6BEE0FF7E00780F7C2D7D017B0117
:100180007AE77940120DAD902CF5E0C313FF90E6AD
:10019000BEE00480417AE679BD7E007F01120DAD9C
:1001A000780F7C2D7D017B017AE679BC7E007F0192
:1001B000120DAD90E6BEE0FF7E0078107C2D7D0133
:1001C0007B017AE77940120DAD902CF5E0C313FF67
:1001D00090E6BEE02402FD7A2D7B0E0203F2E4904D
:1001E000E68AF090E68BF090E6A0E020E1F990E757
:1001F00040E0FCA3E0FDA3E0FEA3E0F5318E308DEE
:100200002F8C2EE4FFFEFDFCAB31AA30A92FA82EC7
:10021000C3120F077004C204807ED204807AE4F512
:1002200008C20790E600E04402F000000090E6BA41
:10023000E030E00E90E6BCE05490FFE5B0546F4F24
:10024000F5B090E6BAE030E10E90E6BCE05460FF15
:10025000E5B0549F4FF5B0020429E490E68AF0908F
:10026000E68BF090E6A0E020E1F990E740E0FCA307
:10027000E0FDA3E0FEA3E0F5318E308D2F8C2EE45F
:10028000FFFEFDFCAB31AA30A92FA82EC3120F0729
:100290007004C2048002D204E4F508C207753D016F
:1002A00090E600E04402F0000000E490E68AF000EE
:1002B000000002042EE54024F090E740F0A3E52280
:1002C000F0E4A3F0A3F0A3F0A20633A3F0A3E52B80
:1002D000F0902CF5E090E747F0A3E543F0300505FA
:1002E000E4A3F0800690E74974FFF0000000E4907A
:1002F000E68AF000000090E68B740A0207B2E490F0
:10030000E68AF090E68BF090E6A0E020E1F990E735
:1003100040E014600C14600B240260030207BA80F2
:10032000258032803FE490E68AF090E68BF090E6FC
:10033000A0E020E1F990E740E01460191460252462
:100340000260030207BA7527F475295390E600741A
:1003500002F00207BA7527E87529A590E600740A2D
:10036000F00207BA7527D175294A90E6007412F099
:100370000207BA90E6BCE0755900F55AFD90E6BE5A
:10038000E0FB7EE77560E77561407FA0122391E492
:1003900090E68AF000000090E6BEE090E68B02074F
:1003A000B2E490E68AF090E68BF090E6A0E020E1DF
:1003B000F990E6BCE0D3940750030207BA780E7CAC
:1003C0002D7D017B017AE679BC7E007F01120DADA7
:1003D00090E6BEE0FF7E00780F7C2D7D017B017AE8
:1003E000E77940120DAD90E6BEE004FD7A2D7B0E5C
:1003F0007F501223F10207BAE490E68AF090E68B70
:10040000F090E6A0E020E1F990E740E07005121AD4
:10041000DF80031223B6E490E68AF000000090E645
:100420008B0207B21224D6D281E490E68AF090E6DD
:100430008BF00207BAE490E68AF090E68BF090E643
:10044000A0E020E1F9E4F55BF55CAF5C74402FF5CA
:1004500082E434E7F583E0FE740E2FF582E4342D58
:10046000F583EEF0055CE55C7002055B6440455B7E
:1004700070D8902D0EE02460B40C004003020641B9
:1004800090048E75F003A4C58325F0C58373020420
:10049000B20204E40204EE02053D02055302055FC8
:1004A00002057B0205F6020612020641020641021F
:1004B000061B12177D75450575460075470375487F
:1004C000C07F0112211A902CF7120F4B00004E2012
:1004D000902CF7E0FCA3E0FDA3E0FEA3E0FF1214E4
:1004E000460205FC902D0FE0FF12211A8079902D15
:1004F00010E0FEA3E07C002400F546EC3EF545A3A9
:10050000E0FEA3E02400F53FEC3EF53EA3E0FEA3B1
:10051000E02400F548EC3EF547A3E0FEA3E024000C
:10052000F542EC3EF541F565854266AB48AA47AD1C
:100530003FAC3EAF46AE45121BB8020641902D0FB0
:10054000E0FCA3E0FDA3E0FEA3E0FF902CF7120F78
:100550003F80147B017A2D790F1218C0020641905A
:100560002D0FE0FF12231D902CF7E0FCA3E0FDA36C
:10057000E0FEA3E0FF121446020641902D0FE02496
:10058000EF603624EF603F24DE603F24DE604224CB
:1005900067604314704FC2A890E6017440F00000F9
:1005A0000090E6047480F00000007402F000000087
:1005B000E4F0000000D2A8802CE4F508F50CF50B5F
:1005C000F50AF50980137F018002E4FF1220818083
:1005D000141224D6D281E4F508C20790E600E04464
:1005E00002F0000000E490E68AF000000090E68B44
:1005F000F0000000804B902D0FE0700B121ADF907E
:1006000028317408F0803A1223B69028317410F023
:10061000802F7B017A2D790F12250C902D0FE0FF92
:1006200030E00CA3E05490FEE5B0546F4EF5B0EF0F
:1006300030E10E902D10E05460FFE5B0549F4FF56F
:10064000B0E490E68AF000000090E68B0207B2E486
:10065000F55BF55C7440255CF582E434E7F583E4F2
:10066000F0055CE55C7002055B6440455B70E5E4A9
:100670007FE87E03FDFCAB0CAA0BA90AA809120EA9
:10068000A2902812120F3F902CF7E0FCA3E0FDA3EC
:10069000E0FEA3E0FF12240D902816EFF0902CF757
:1006A000E0FCA3E0FDA3E0FEA3E0FF1224B090284D
:1006B00017EFF0902CF7E0FCA3E0FDA3E0FEA3E031
:1006C000FF1224C3902818EFF0902CF7E0FCA3E071
:1006D000FDA3E0FEA3E0FF121DF5902819EFF0A3A3
:1006E000E544F0A3E540F0A3E522F0E54590282D90
:1006F000F0E546A3F0E547A3F0E548A3F0902832E3
:100700003005057402F080037401F0E4F55BF55CDC
:10071000AF5C74112FF582E43428F583E0FE744059
:100720002FF582E434E7F583EEF0055CE55C7002BA
:10073000055B6422455B70D87EE77560E775616E86
:100740007B027D107FA01223917EE77560E77561C3
:10075000707B107D187FA0122391E490E68AF00050
:10076000000090E68B74408049E4F55BF55C7440D2
:10077000255CF582E434E7F583E4F0055CE55C7024
:1007800002055B6440455B70E590E74EE528F0A309
:10079000E526F0A3E525F0A3E524F090E77EE53C0F
:1007A000F0A3E53BF0E490E68AF000000090E68BD1
:0B07B0007440F00000008002D322C360
:0107BB00221B
:10242900C0E0C083C082D2015391EF90E65D740190
:08243900F0D082D083D0E03224
:10246F00C0E0C083C0825391EF90E65D7404F0D05A
:06247F0082D083D0E032A0
:10248500C0E0C083C0825391EF90E65D7402F0D046
:0624950082D083D0E0328A
:10215600C0E0C083C08290E680E030E70E850D11B6
:10216600850E12851513851614800C851511851696
:1021760012850D13850E145391EF90E65D7410F0E1
:07218600D082D083D0E032CB
:10244100C0E0C083C082D2035391EF90E65D74086F
:08245100F0D082D083D0E0320C
:10218D00C0E0C083C08290E680E030E70E850D117F
:10219D00850E12851513851614800C85151185165F
:1021AD0012850D13850E145391EF90E65D7420F09A
:0721BD00D082D083D0E03294
:01254A00325E
:01254B00325D
:01254C00325C
:01254D00325B
:101F2600C0E0C083C082C0D075D000C000C004C06D
:101F360005C006C007C2AFE4FFFEFDE532FC781817
:101F4600120F1890E7C4EFF0E4FFFEE533FDE4FC62
:101F56007810120F18A3EFF0E4FFE534FEE4FDFC61
:101F66007808120F18A3EFF0E535FFA3EFF0000095
:101F76000090E68F7408F00000005391EF90E65F42
:101F8600E04404F0D2AFD007D006D005D004D0008C
:091F9600D0D0D082D083D0E0321B
:101C6D00C0E0C083C082C0D075D000C004C005C024
:031C7D0006C00797
:101C8000C2AF90E6A1E020E1F990E780E024EF60A8
:101C90002214604F2413605024EF705890E781E0C5
:101CA000FCA3E0FDA3E0FEA3E0F5398E388D378C70
:101CB000368041752A01C2A8D28390E600E0440232
:101CC000F000000090E6017440F000000090E6048F
:101CD0007480F00000007402F0000000E4F00000E6
:101CE000008011752A02800C7535647534007533D7
:101CF0000075320000000090E68DE4F05391EF9003
:081D0000E65FE04408F0D2AFF9
:101D0800D007D006D005D004D0D0D082D083D0E080
:011D18003298
:01254E00325A
:01254F003259
:012550003258
:012551003257
:012552003256
:012553003255
:012554003254
:012555003253
:012556003252
:012557003251
:012558003250
:01255900324F
:01255A00324E
:01255B00324D
:01255C00324C
:01255D00324B
:01255E00324A
:01255F003249
:012560003248
:012561003247
:012562003246
:012563003245
:012564003244
:012565003243
:012566003242
:012567003241
:012568003240
:01256900323F
:01256A00323E
:01256B00323D
:101E00001201000200000040181621090000010222
:101E100000010A060002000000400100090227003C
:101E200001010080FA0904000003FF00000007051B
:101E3000820200020007058102400000070501023E
:101E40004000000902190001010080FA09040000A5
:101E500001FF00000007058202400000040309049E
:101E600014035100480059002D0043004300440072
:101E700020002000240351004800590035002D00A7
:101E80004900490020002000200020002000200000
:0A1E900020002000200020000000C8
:1022C50090E682E030E004E020E60B90E682E03024
:1022D500E119E030E71590E680E04401F07F147ED7
:0C22E50000121DAF90E680E054FEF022D5
:10236C0090E682E044C0F090E681F04387010000E3
:04237C00000000223B
:1022960030080990E680E0440AF0800790E680E086
:1022A6004408F07FDC7E05121DAF90E65D74FFF0FA
:0F22B60090E65FF05391EF90E680E054F7F0224E
:101DAF008E678F6890E600E054187012E568240182
:101DBF00FFE43567C313F567EF13F568801590E6F9
:101DCF0000E05418FFBF100BE56825E0F568E567E4
:101DDF0033F567E5681568AE67700215674E6005E5
:061DEF0012238080EE22A9
:08253000E4F574D2E9D2AF22F8
:1021C40090E678E020E6F9C2E990E678E04480F011
:1021D400EF25E090E679F090E678E030E0F990E6DB
:1021E40078E04440F090E678E020E6F990E678E084
:0621F40030E1D6D2E92221
:10226400A90790E678E020E6F9E574702390E67813
:10227400E04480F0E925E090E679F08D6FAF03A9A2
:10228400077570018A718972E4F573757401D3223C
:02229400C32263
:10223000A90790E678E020E6F9E574702590E67845
:10224000E04480F0E925E0440190E679F08D6FAF3D
:1022500003A9077570018A718972E4F573757403B7
:04226000D322C322A0
:03004B000219D7C0
:1019D700C0E0C083C082C085C084C086758600C051
:1019E700D075D000C000C001C002C003C006C00748
:1019F70090E678E030E206757406021AC190E67840
:101A0700E020E10CE57464026006757407021AC1F0
:101A1700E57424FE605F14603624FE7003021AB278
:101A270024FC7003021ABE24086003021AC1AB70BB
:101A3700AA71A972AF7305738F82758300120DD3D4
:101A470090E679F0E573656F7070757405806B903B
:101A5700E679E0AB70AA71A972AE738E82758300C6
:101A6700120E00757402E56F6401704E90E678E01F
:101A77004420F08045E56F24FEB5730790E678E0D3
:101A87004420F0E56F14B5730A90E678E04440F01F
:101A970075740090E679E0AB70AA71A972AE738E87
:101AA70082758300120E000573800F90E678E0447C
:101AB70040F075740080037574005391DFD007D030
:101AC70006D003D002D001D000D0D0D086D084D0A9
:081AD70085D082D083D0E032FB
:0222F100A9073B
:1022F300AE1BAF1C8F828E83A3E064037017AD0106
:1023030019ED7001228F828E83E07C002FFDEC3E5D
:09231300FEAF0580DF7E007F00B3
:01231C00229E
:1023D500122230E57424FA600E146006240770F3A7
:0C23E500D322E4F574D322E4F574D32273
:1023F100122264E57424FA600E146006240770F357
:0C240100D322E4F574D322E4F574D32256
:102380007400F58690FDA57C05A3E582458370F970
:01239000222A
:03004300021B009D
:03005300021B008D
:101B0000022429000224850002246F0002244100DF
:101B10000221560002218D0002254A0002254B00B9
:101B200002254C0002254D00021F2600021C6D00FC
:101B300002254E0002254F000225500002255100CB
:101B40000225520002254B000225530002255400B5
:101B5000022555000225560002255700022558008F
:101B60000225590002254B0002254B0002254B009F
:101B700002255A0002255B0002255C0002255D005B
:101B800002255E0002255F0002256000022561003B
:101B9000022562000225630002256400022565001B
:101BA00002256600022567000225680002256900FB
:081BB00002256A0002256B000A
:04253C00000000009B
:1007E400412CF5BA6040281101000000000000000F
:1007F40000000000000000000000000000000000F5
:1008040000000000000000000000000000000000E4
:1008140000000000000000000000000000000000D4
:100824000000000000000000412CF60C41281000DC
:1008340064A42851308880003086002530865050CA
:1008440030862D263086082830860D1730860926F6
:1008540030860028308605263086A728308607256E
:1008640030868080308629253086004030862702F5
:10087400308616163086270630861F1730863626B1
:100884003086A617308603263086A41730861F28A4
:1008940030860526308620283086042530862020A0
:1008A400308627003086171D3086250030862017B5
:1008B40030861028308605193086170330862706BF
:1008C4003086170330861741308626603086175AE3
:1008D4003086231730861122308617413086250052
:1008E4003086902730860026308618283086002EE1
:1008F40030862A283086081C3086147030867003AF
:10090400308614703086700430861470308670051A
:1009140030861470308670093086170C30860014C7
:100924003086002030860014308600503086031450
:10093400308600203086031430860050308604143C
:10094400308600203086041430860050308605142A
:10095400308600203086240530861400308650010D
:10096400308625503086502D308626083086280D56
:10097400308617093086260030862805308626A75B
:1009840030862807308625803086802930862500E9
:100994003086402730860216308616273086062099
:1009A40030861736308626A630861703308626A46E
:1009B4003086171F30862805308626203086280486
:1009C40030862520308620273086001730861D2566
:1009D40030860020308617103086280530861A1796
:1009E4003086032730860617308603173086412663
:1009F400308660173086AE2530860090308627001A
:100A0400308626183086280030862E2A308628081C
:100A140030861D05308614703086700930861720A4
:100A2400308614003086202430861400308650022C
:100A3400308625503086502D308626083086280D85
:100A4400308617093086260030862805308626A78A
:100A54003086280730862580308680293086250018
:100A640030864027308602163086162730860617D1
:100A7400308636263086A617308603263086A4179D
:100A840030861F28308605263086202830860425A7
:100A940030862020308627003086171D30862500BA
:100AA40030862021308617103086280530861B17A3
:100AB4003086032730860617308603173086412692
:100AC400308660173086AE25308600903086270049
:100AD400308626183086280030862E2A308628084C
:100AE40030861E1730860A053086147030867009E9
:100AF400308616163086161630861616308616166A
:100B04003086161630861616308616163086161659
:100B14003086161630861616308616163086161649
:100B24003086161630861616308616163086161639
:100B34003086140030862024308614003086502BF2
:100B44003086302C30862C2C30862C0030860225C2
:100B54003086505030862D263086082830860D1772
:100B64003086092630860028308605263086A72858
:100B74003086072530868080308629173086052503
:100B840030860040308627023086161630862706C7
:100B940030861736308626A630861703308626A47C
:100BA4003086171F30862805308626203086280494
:100BB40030862520308620273086001730861E2573
:100BC4003086002030862117308610283086051B99
:100BD400308617033086270630861703308617477A
:100BE40030862660308617AE308625003086902702
:100BF40030860026308618283086002E30862A2833
:100C04003086081E30860831308614403086401401
:100C1400308620203086141030861034308614003C
:100C2400308610143086002030861400308640133D
:100C34003086180230861470308670043086147042
:100C44003086700330861470308670173086200228
:100C5400308614003086200230861400308650041A
:100C640030861400308620043086140030865022EA
:100C740030860314308600203086031430860050FA
:100C840030862C2C30862C2C309E018A301A10D8B9
:100C940030820029301E00C83EDA0F033EDEC00752
:100CA4003ED801EF3EE2A46B3EE0067D3EDC0070E0
:100CB400304404043EE643033EE4D2083ED600BD7D
:100CC4003EE6830330E4637230E2725330E05470E2
:080CD40030E6C4CC30E880508A
:08240D008F6A8E698D688C67EF
:10241500E4FFFEFDE5677818120F2B8F6E8E6D8D2C
:032425006C8C6B51
:012428002291
:1024B000E4FFFEE4FC7810120F188F6A8E698D68B5
:0224C0008C6727
:0124C20022F7
:1024C300E4FFE4FDFC7808120F188F6A8E698D68AB
:0224D3008C6714
:0124D50022E4
:0A1DF500EFF56AE4F569F568F5679B
:011DFF0022C1
:042391008F5D8B5F72
:10239500902D30EDF0E55DC313FF7A2D7B307D0187
:1023A5001223F1E55DC313FFAB61AA60AD5F0223A4
:0123B500D552
:0E21FA00E0FF75682D7569307D1A7B027C3020
:042208008F648B67ED
:10220C00EC902D32F0EDA3F0E564C313FF7A2D7B37
:10221C00327D021223F1E564C313FFAB69AA68ADEA
:04222C00670223D54D
:09234600902CF5E0FF7A007C30D8
:02234F00A907DC
:10235100EC902D34F0EDA3F0EAA3F0EBA3F0E9C388
:0B23610013FF7A2D7B347D040223F172
:10177D00E4F55DF55E902CF5E0FF7B0F7AE07DD40E
:10178D007C3012234F7B017D1A122346902CF5E0FD
:10179D00FF7BD87A107D1A7C3012234F7FC87E00D4
:1017AD00121DAFE4F55DF55EE55EAE5D7802C33307
:1017BD00CE33CED8F9FF2451F58274283EF583E05F
:1017CD00FCA3E0FD74532FF58274283EF583E0FAF7
:1017DD00A3E0FB902CF5E0FF12234F055EE55E7054
:1017ED0002055DC39429E55D940140BC7FC87E0070
:1017FD00121DAF902CF5E0FF7B0A7A007DBA7C308C
:10180D0012234F7FC87E00121DAF902CF5E0FF7B99
:10181D00307A537DB07C3012234F902CF5E0FF7B56
:10182D00FF7A007D5E7C3012234F7B207D121223C8
:10183D0046902CF5E0FF7B027A187D647C301223F4
:10184D004FE4FF12211AE4902D0EF0A37405F0E47D
:10185D00A3F0A3F0A3F0A37403F0A374C0F0E4A36A
:10186D00F0A3F0F565F5667BC07A03FDFCFF7E0500
:10187D00121BB87F1E12231D902CF7120F4B000365
:10188D000D40902CF7E0FCA3E0FDA3E0FEA3E0FFEC
:10189D00121446E4902D0EF0A3740FF0902D1174D8
:1018AD00FFF0902D15F0902D19F07B017A2D790E0A
:0318BD000218C04E
:0618C0008B5F8A60896164
:1018C600E4F562F56378307C2D7D017BFF7A25791E
:1018D6003CFE7F02120DAD902CF5E0FF75682D756C
:1018E60069307DB0122204902D30E0F562A3E0F558
:1018F60063AB5FAA60A961900001120DD3540C7A04
:1019060000FB7E007802C333CE33CED8F9FB5303F7
:1019160030EB4263902CF5E0FFAB63AA627DB07CAE
:101926003012234F902CF5E0FF75682D7569307BDA
:10193600027DE47C3E122208902D30E0F562A3E0A1
:10194600F563AB5FAA60A961900001120DD3540341
:101956007B00FA530203EA4262902CF5E0FF7DE435
:101966007C3E12234F902CF5E0FFAB5FAA60A96185
:10197600900007120DD3FB7A007D567C3012234F60
:10198600902CF5E0FFAB5FAA60A96190000B120DE9
:10199600D3FB7A007D587C3012234F902CF5E0FF64
:1019A600AB5FAA60A961900003120DD3FB7A007D9C
:1019B6005A7C3012234F902CF5E0FFAB5FAA60A94A
:1019C60061900007120DD3FB7A007D5C7C30022308
:0119D6004FC1
:041BB8008A638B644D
:101BBC00ED2404F568E43CF567E5662404F56AE475
:101BCC003565F569EF24FFF56CEE34FFF56BE564D4
:101BDC0024FFF56EE56334FFF56D902CF5E0FFAB5B
:101BEC006AAA697D027C3012234F902CF5E0FFAB82
:101BFC0068AA677D047C3012234F902CF5E0FFE53A
:101C0C006A256EFBE569356DFA7D067C3012234F33
:101C1C00902CF5E0FFE568256CFBE567356BFA7DEC
:101C2C00087C3012234F902CF5E0FFE564241AFB5E
:101C3C00E43563FA7D0A7C3012234F902CF5E0FFDB
:101C4C007B727A067D0C7C3012234F752C06752D19
:101C5C0072902CF5E0FF7BDC7A107D1A7C3002232D
:011C6C004F28
:081446008F628E618D608C5FE6
:10144E00E4F563F564F565F566902D30120F4B00EB
:10145E00000000852C65852D66E565F53CE566F595
:10146E003B902CF6E0FD7C00AE65AF66120E22E4DA
:10147E00FCFD7BE87AFDF9F8120EA2902D30120FCA
:10148E003F902D30E0FCA3E0FDA3E0FEA3E0FF12B1
:10149E001DF58F24902D30E0FCA3E0FDA3E0FEA30C
:1014AE00E0FF1224C38F25902D30E0FCA3E0FDA3B6
:1014BE00E0FEA3E0FF1224B08F26902D30E0FCA3B7
:1014CE00E0FDA3E0FEA3E0FF12240D8F28902D3047
:1014DE00E0FCA3E0FDA3E0FEA3E0FFAB62AA61A9DE
:1014EE0060A85FD3120EF140679028107401F0903F
:1014FE002CF5E0FF7BE87AFD7D127C3012234F90B5
:10150E002D30E0F8A3E0F9A3E0FAA3E0FBC3E56217
:10151E009BFFE5619AFEE56099FDE55F98FCE47B33
:10152E00E87A03F9F81220D68F628E618D608C5F97
:10153E008F318E308D2F8C2ED204E4F508C20775B4
:10154E003D0190E600E04402F07F017E00021DAFF7
:10155E00902810E064017028F0F531F530F52FF584
:10156E002EC204F508C207753D0190E600E0440264
:10157E00F0902CF5E0FFE4FBFA7D127C3012234F45
:10158E00AE65AF66AB07AA06E4F9F8AF62AE61AD21
:10159E0060AC5F1220D6A804A905AA06AB07902C52
:1015AE00F6E0FFE4FCFDFE120EA28E638F64E4FCF7
:1015BE00FD7BE87AFDF9F8C3120EF150067563FD56
:1015CE007564E8C3E5649401E563940050067563A1
:1015DE0000756401902CF5E0FFAB64AA637D127C6C
:0415EE003012234F45
:0115F20022D6
:10211A00EF1460071460122402801C90E600740A0F
:10212A00F0902CF67418F0801A90E6007412F09071
:10213A002CF67430F0800C90E6007402F0902CF6C5
:0C214A00740CF0902CF6E0902811F022AC
:10231D008F5FEF75F032A4AEF02472F52DEE34061A
:10232D00F52C902CF5E0FFAB2DAA2C7D0C7C3012FA
:09233D00234F902821E55FF022F6
:10250C00120E77FBAAF0902CF5E0FF7D1E7C3002BA
:02251C00234F4B
:022081008F5D71
:10208300755E00755F0178307C2D7D017BFF7A25BD
:10209300793E7E007F02120DADE55D902CF5701246
:1020A3001221FA902D30E0F55EA3E0F55F435F0463
:1020B30080101221FA902D30E0F55EA3E0F55F5316
:1020C3005FFB902CF5E0FFAB5FAA5E7D1A7C3012BC
:0220D300234F99
:0120D50022E8
:03000000021E9A43
:0C1E9A00787FE4F6D8FD758174021EE12B
:100CDD00E709F608DFFA8046E709F208DFFA803EF9
:100CED0088828C83E709F0A3DFFA8032E309F608E6
:100CFD00DFFA8078E309F208DFFA807088828C834E
:100D0D00E309F0A3DFFA806489828A83E0A3F60801
:100D1D00DFFA805889828A83E0A3F208DFFA804CDB
:100D2D0080D280FA80C680D4806980F280338010B2
:100D3D0080A680EA809A80A880DA80E280CA80331B
:100D4D0089828A83ECFAE493A3C8C582C8CCC58393
:100D5D00CCF0A3C8C582C8CCC583CCDFE9DEE78063
:100D6D000D89828A83E493A3F608DFF9ECFAA9F0E2
:100D7D00EDFB2289828A83ECFAE0A3C8C582C8CC38
:100D8D00C583CCF0A3C8C582C8CCC583CCDFEADE51
:100D9D00E880DB89828A83E493A3F208DFF980CCB3
:100DAD0088F0EF60010E4E60C388F0ED2402B404AC
:100DBD000050B9F582EB2402B4040050AF23234553
:060DCD008223900D2D733E
:100DD300BB010CE58229F582E5833AF583E02250D5
:100DE30006E92582F8E622BBFE06E92582F8E2221F
:0D0DF300E58229F582E5833AF583E4932239
:100E0000F8BB010DE58229F582E5833AF583E8F028
:100E1000225006E92582C8F622BBFE05E92582C8D4
:020E2000F222BC
:100E2200BC000BBE0029EF8DF084FFADF022E4CCB4
:100E3200F875F008EF2FFFEE33FEEC33FCEE9DEC7D
:100E4200984005FCEE9DFE0FD5F0E9E4CEFD22EDC3
:100E5200F8F5F0EE8420D21CFEADF075F008EF2F0D
:100E6200FFED33FD4007985006D5F0F222C398FDFE
:050E72000FD5F0EA229B
:100E7700BB010A89828A83E0F5F0A3E02250068746
:100E8700F009E71922BBFE07E3F5F009E319228908
:0B0E9700828A83E493F5F0740193223B
:100EA200E88FF0A4CC8BF0A42CFCE98EF0A42CFCEF
:100EB2008AF0EDA42CFCEA8EF0A4CDA8F08BF0A46D
:100EC2002DCC3825F0FDE98FF0A42CCD35F0FCEBCC
:100ED2008EF0A4FEA9F0EB8FF0A4CFC5F02ECD3991
:0F0EE200FEE43CFCEAA42DCE35F0FDE43CFC22FE
:1020D600C2D5E830E70FB2D5E4C39BFBE49AFAE435
:1020E60099F9E498F8EC30E717B2D512210C120FE3
:1020F600DEE4C39BFBE49AFAE499F9E498F88003DA
:10210600120FDE30D50DE4C39FFFE49EFEE49DFD75
:04211600E49CFC2227
:100EF100EB9FF5F0EA9E42F0E99D42F0EC6480C878
:060F010064809845F02217
:100F0700EB9FF5F0EA9E42F0E99D42F0E89C45F040
:010F170022B7
:100F1800E8600FECC313FCED13FDEE13FEEF13FFB7
:030F2800D8F122DB
:100F2B00E86010ECA2E713FCED13FDEE13FEEF13DC
:040F3B00FFD8F022C9
:0C0F3F00ECF0A3EDF0A3EEF0A3EFF02225
:100F4B00A8828583F0D083D082120F62120F6212B7
:100F5B000F62120F62E473E493A3C583C5F0C583DC
:100F6B00C8C582C8F0A3C583C5F0C583C8C582C8F0
:010F7B002253
:100F7C00D083D082F8E4937012740193700DA3A304
:100F8C0093F8740193F5828883E473740293686018
:060F9C00EFA3A3A380DF18
:101EA600021294E493A3F8E493A34003F68001F2AC
:101EB60008DFF48029E493A3F85407240CC8C3333D
:101EC600C4540F4420C8834004F456800146F6DF0C
:101ED600E4800B01020408102040809007BCE47ED9
:101EE600019360BCA3FF543F30E509541FFEE49301
:101EF600A360010ECF54C025E060A840B8E493A3C8
:101F0600FAE493A3F8E493A3C8C582C8CAC583CAF2
:101F1600F0A3C8C582C8CAC583CADFE9DEE780BEAA
:010CDC000017
:100FA20075F008758200EF2FFFEE33FECD33CDCC06
:100FB20033CCC58233C5829BED9AEC99E582984089
:100FC2000CF582EE9BFEED9AFDEC99FC0FD5F0D666
:100FD200E4CEFBE4CDFAE4CCF9A88222B800C1B990
:100FE2000059BA002DEC8BF084CFCECDFCE5F0CBCE
:100FF200F97818EF2FFFEE33FEED33FDEC33FCEB07
:1010020033FB10D703994004EB99FB0FD8E5E4F9C1
:10101200FA227818EF2FFFEE33FEED33FDEC33FCAE
:10102200C933C910D7059BE99A4007EC9BFCE99AA2
:10103200F90FD8E0E4C9FAE4CCFB2275F010EF2FE7
:10104200FFEE33FEED33FDCC33CCC833C810D707E7
:101052009BEC9AE899400AED9BFDEC9AFCE899F822
:0E1062000FD5F0DAE4CDFBE4CCFAE4C8F922B5
:00000001FF
